:100000000C9463000C948B000C948B000C943206BF
:100010000C9432060C9432060C948B000C948B00DA
:100020000C948B000C948B000C948B000C948B0024
:100030000C948B000C948B000C948B000C948B0014
:100040000C9475040C948B000C94E5040C94BF0480
:100050000C948B000C948B000C948B000C948B00F4
:100060000C9417050C948B0000000000240027005E
:100070002A0000000008000201000003040700003D
:1000800000000000000000000000230026002900FE
:1000900000000000250028002B00040404040404D0
:1000A0000404020202020202030303030303010227
:1000B00004081020408001020408102001020408F6
:1000C0001020AA06B60811241FBECFEFD8E0DEBF6D
:1000D000CDBF11E0A0E0B1E0EEE0F2E102C005909A
:1000E0000D92A436B107D9F722E0A4E6B1E001C031
:1000F0001D92AD3EB207E1F710E0C2E6D0E004C0C9
:100100002197FE010E94F408C136D107C9F70E9469
:1001100055070C94FA080C94000090E0FC01EE588E
:10012000FF4F2491FC01E255FF4F3491FC01E6564C
:10013000FF4FE491EE23C9F0222339F0233001F17F
:10014000A8F4213019F1223029F1F0E0EE0FFF1F61
:10015000E057FF4FA591B4918FB7F894EC916111DE
:1001600026C030953E233C938FBF08952730A9F0D9
:100170002830C9F0243049F7809180008F7D03C07A
:10018000809180008F7780938000DFCF84B58F7758
:1001900084BDDBCF84B58F7DFBCF8091B0008F779E
:1001A0008093B000D2CF8091B0008F7DF9CF3E2BED
:1001B000DACFCF93DF9390E0FC01E255FF4F24911B
:1001C00086569F4FFC0184918823D1F090E0880FE0
:1001D000991FFC01E859FF4FA591B491FC01E0572C
:1001E000FF4FC591D49161110EC09FB7F8948C91C7
:1001F000E22FE0958E238C932881E223E8839FBF32
:10020000DF91CF9108958FB7F894EC91E22BEC93A6
:100210008FBFF6CF3FB7F89480912D0290912E02B8
:10022000A0912F02B091300226B5A89B05C02F3FA8
:1002300019F00196A11DB11D3FBFBA2FA92F982F0C
:100240008827BC01CD01620F711D811D911D42E007
:10025000660F771F881F991F4A95D1F708958F92CF
:100260009F92AF92BF92CF92DF92EF92FF924B019B
:100270005C010E940A016B017C010E940A016C1959
:100280007D098E099F09683E734081059105A8F399
:1002900021E0821A9108A108B10888EEC80E83E017
:1002A000D81EE11CF11C81149104A104B10429F7AA
:1002B000FF90EF90DF90CF90BF90AF909F908F9086
:1002C0000895AF92BF92CF92DF92EF92FF920F9379
:1002D0001F93CF93DF936C017B018B01040F151FDC
:1002E000EB015E01AE18BF08C017D10759F0699144
:1002F000D601ED91FC910190F081E02DC6010995A8
:10030000892B79F7C501DF91CF911F910F91FF9054
:10031000EF90DF90CF90BF90AF900895FC01538D88
:10032000448D252F30E0842F90E0821B930B5417CF
:1003300010F0CF96089501970895FC01918D828D5C
:10034000981761F0A28DAE0FBF2FB11D5D968C91F5
:10035000928D9F5F9F73928F90E008958FEF9FEF34
:100360000895FC01918D828D981731F0828DE80FF0
:10037000F11D858D90E008958FEF9FEF0895FC01AA
:10038000918D228D892F90E0805C9F4F821B910977
:100390008F739927089581E392E00E94BF0121E0C5
:1003A000892B09F420E0822F089580E090E0892BCA
:1003B00029F00E94CB0181110C9400000895FC01EA
:1003C000A48DA80FB92FB11DA35ABF4F2C91848DB6
:1003D00090E001968F739927848FA689B7892C9313
:1003E000A089B1898C91837080648C93938D848D66
:1003F000981306C00288F389E02D80818F7D808369
:100400000895EF92FF920F931F93CF93DF93EC0128
:1004100081E0888F9B8D8C8D98131AC0E889F989AB
:10042000808185FF15C09FB7F894EE89FF896083AE
:10043000E889F98980818370806480839FBF81E02F
:1004400090E0DF91CF911F910F91FF90EF90089571
:10045000F62E0B8D10E00F5F1F4F0F731127E02E4C
:100460008C8D8E110CC00FB607FCFACFE889F98984
:10047000808185FFF5CFCE010E94DF01F1CFEB8DAA
:10048000EC0FFD2FF11DE35AFF4FF0829FB7F89458
:100490000B8FEA89FB8980818062CFCFCF93DF9376
:1004A000EC01888D8823B9F0AA89BB89E889F9898C
:1004B0008C9185FD03C0808186FD0DC00FB607FCC1
:1004C000F7CF8C9185FFF2CF808185FFEDCFCE01F4
:1004D0000E94DF01E9CFDF91CF9108952091D801EB
:1004E000260F3327331F21323105ECF42091FC0114
:1004F000FC0190E080E0243069F082E00895A09152
:10050000D8012191AC0148545E4FA40FB52FB11D05
:100510002C930196861798F38091D801680F609309
:10052000D80180E0089581E0089508958FEF9FEF4E
:1005300008958FEF9FEF08958091B10190E091951C
:10054000819591090895CF93DF93CB01EA01642F40
:100550000E946E02CE01DF91CF910895CF93DF9379
:100560001F92CDB7DEB7698361E0CE0101960E948C
:100570006E0281E090E00F90DF91CF91089520917D
:100580002402309125022817390771F49091220234
:1005900080912302981741F0E0912202F0E0EF5899
:1005A000FE4F808190E008958FEF9FEF0895EF92C6
:1005B000FF920F931F93CF93DF93DC015C96ED9036
:1005C000FC905D97E114F10479F481E090E01396DA
:1005D0009C938E93129790E080E0DF91CF911F91D2
:1005E0000F91FF90EF9008955196ED91FC915297E5
:1005F00050968C915097982F90950FB75E962C91AE
:100600005E97122F127021FD6095F89420811123BE
:1006100019F1282B2083E7012197F1F728E0462FD5
:1006200050E0308160FF1AC0382B3083E7012197FA
:10063000F1F7BA0175956795215089F7112381F07B
:100640008081892380830FBF5C968D919C91019757
:10065000F1F781E090E0C1CF2923DCCF3923E5CF4A
:100660009081892BEFCF2091240230912502281709
:10067000390761F4809123022091220290E0805C8E
:100680009F4F821B91098F739927089590E080E016
:100690000895209124023091250228173907B9F4D2
:1006A0009091220280912302981789F0E091220212
:1006B000F0E0EF58FE4F80812091220230E02F5F62
:1006C0003F4F2F7333272093220290E008958FEF3E
:1006D0009FEF089590E080E00895FC0101900020D4
:1006E000E9F73197AF01481B590BBC0181E392E058
:1006F0000C9461018F929F92AF92BF920F931F93C0
:10070000CF93DF93CDB7DEB7A1970FB6F894DEBFD6
:100710000FBECDBF19A2423008F44AE08E010F5D32
:100720001F4F842E912CB12CA12CA50194010E9465
:10073000D208E62FB901CA01EA30F4F4E05DD8012D
:10074000EE938D01232B242B252B79F790E080E06D
:10075000109719F0CD010E946D03A1960FB6F89481
:10076000DEBF0FBECDBFDF91CF911F910F91BF9024
:10077000AF909F908F900895E95CE1CFCF93DF9386
:10078000EC0161E087E00E948D0061E088E00E945A
:100790008D006AE070E080E090E00E942F0142E06E
:1007A00050E0BE018EEC92E00E946101089711F5C5
:1007B00060E087E00E948D0060E088E00E948D008C
:1007C000C4E6D1E08EEC92E00E9449038993682F41
:1007D00070E090E080E040E10E947A0384E391E0E1
:1007E0000E946D0381E0CB36D80761F784E391E086
:1007F0000E946D038091690190E0DF91CF9108958F
:100800001F93CF93DF9385ED8093BC008091B4015B
:100810009091B501A091B601B091B7010796A11DC5
:10082000B11D23E0B695A795979587952A95D1F7A1
:100830002091BC0024FD03C01092FC0152C04091E5
:10084000B4015091B5016091B6017091B701452B8B
:10085000462B472B69F30097A105B10541F02AE229
:100860002A95F1F700C00197A109B109E1CF809164
:10087000B301C1E0C093B201882399F1D091B800CF
:100880001091BA008091BC008A7B8093BC0060E02C
:1008900082E10E948D0060E083E10E948D00109251
:1008A000FC01C093FE011092FD0161E082E10E9413
:1008B0008D0061E083E10E948D008091B9008E7F00
:1008C0008093B9008091B9008D7F8093B90088E44E
:1008D0008093B80085E48093BC001093BA00D09355
:1008E000B800DF91CF911F9108951F920F920FB61C
:1008F0000F9211242F933F938F939F93AF93BF93A6
:100900008091290290912A02A0912B02B0912C0291
:100910003091280223E0230F2D3758F50196A11DB1
:10092000B11D209328028093290290932A02A0935C
:100930002B02B0932C0280912D0290912E02A09157
:100940002F02B09130020196A11DB11D80932D029E
:1009500090932E02A0932F02B0933002BF91AF91DB
:100960009F918F913F912F910F900FBE0F901F90ED
:10097000189526E8230F0296A11DB11DD2CF1F9214
:100980000F920FB60F9211242F933F934F935F93C3
:100990006F937F938F939F93AF93BF93EF93FF9347
:1009A00081E392E00E94DF01FF91EF91BF91AF914F
:1009B0009F918F917F916F915F914F913F912F9177
:1009C0000F900FBE0F901F9018951F920F920FB6A9
:1009D0000F9211242F938F939F93EF93FF93E091A6
:1009E0004102F09142028081E0914702F091480279
:1009F00082FD1BC0908180914A028F5F8F7320918E
:100A00004B02821741F0E0914A02F0E0EF5CFD4FAB
:100A1000958F80934A02FF91EF919F918F912F9133
:100A20000F900FBE0F901F9018958081F4CF1F92EA
:100A30000F920FB60F9211242F933F934F935F9312
:100A40006F937F938F939F93AF93BF93EF93FF9396
:100A50008091B900887F803609F44AC0F0F5883269
:100A600009F4A5C018F5803109F499C0B8F48823B9
:100A700009F4F5C0883009F492C0FF91EF91BF915D
:100A8000AF919F918F917F916F915F914F913F9126
:100A90002F910F900FBE0F901F901895883109F479
:100AA00086C0803251F78093FB0114C0803409F472
:100AB0009BC040F48033B9F38833F9F68093FB018F
:100AC00085ECAEC0803509F483C0883509F494C044
:100AD000883499F60E940004D0CF883909F48AC07E
:100AE00038F5883729F050F4883611F0803729F628
:100AF00083E08093FC011092FA0155C0883809F414
:100B000079C0803919F0803809F0B7CF8091FA01A7
:100B1000803208F06FC0E091FA0181E08E0F80937F
:100B2000FA018091BB00F0E0E652FE4F80833BC0AB
:100B3000803B39F0D0F4803A09F477C0883A09F064
:100B40009CCF84E08093FC011092D9011092D801CF
:100B5000F0E0E0E009958091D80181110FC081E0BB
:100B60008093D8011092B80109C0803C09F4A8CF45
:100B7000883C09F4A5CF883B09F07FCFE091D901EB
:100B800081E08E0F8093D901F0E0E854FE4F808120
:100B90008093BB009091D9018091D80129C08091A8
:100BA00021028093BB0085EC8093BC0066CF9091BE
:100BB000200280911F02981758F5E091200281E0F1
:100BC0008E0F80932002F0E0E150FE4F8081E9CF4C
:100BD000E091200281E08E0F809320028091BB0083
:100BE000F0E0E150FE4F80839091200280911F023F
:100BF0009817C8F285E8D8CFE091200281E08E0FE7
:100C0000809320028091BB00F0E0E150FE4F808392
:100C10008091FE0181115ECF81E08093FD0184EA25
:100C20008093BC001092FC0128CF85EC8093BC001F
:100C30001092FC018091FA01803230F4E091FA01C7
:100C4000F0E0E652FE4F10826091FA0170E08AED0A
:100C500091E0F0E0E0E009951092FA010ECF1092D9
:100C6000FB0138CF1F920F920FB60F9211242F93D2
:100C70003F934F935F936F937F938F939F93AF9324
:100C8000BF93EF93FF93E0912402F09125023097F8
:100C900049F0A685B7858585968D91FF14C09C91F6
:100CA0008923A1F4FF91EF91BF91AF919F918F9113
:100CB0007F916F915F914F913F912F910F900FBE58
:100CC0000F901F9018959C91892361F7A389B4898F
:100CD0009C918589809589238C9386899789019732
:100CE000F1F7608D718DA685B785558538E020E0D8
:100CF000CB010197F1F7822F90E095958795282FEA
:100D00004C91452309F02068315091F7868D81FD83
:100D100020958091230290E001968F73992730915E
:100D20002202381799F0A0912302B0E0AF58BE4FCD
:100D30002C9380932302828D938D0197F1F7A389E1
:100D4000B4898C919589892B8C93ACCF868D8160E9
:100D5000868FF1CF109234021092330288EE93E026
:100D6000A0E0B0E08093350290933602A093370262
:100D7000B093380224E131E0309332022093310203
:100D800025EC30E030933E0220933D0224EC30E02D
:100D90003093400220933F0220EC30E03093420237
:100DA0002093410221EC30E030934402209343022F
:100DB00022EC30E0309346022093450226EC30E0EE
:100DC000309348022093470210924A0210924B023D
:100DD00010924C0210924D021092D1021092D00249
:100DE0008093D2029093D302A093D402B093D50201
:100DF00086E291E09093CF028093CE021092E502BA
:100E00001092E4021092E7021092E6021092E902B8
:100E10001092E8021092EB021092EA026091EC024A
:100E20006E7F6D7F6093EC026695617081E068274C
:100E300083E00E948D0061E083E00E94D900E1EB35
:100E4000F0E0E491E093DE02EDE9F0E0E491F0E01F
:100E5000EE0FFF1FE057FF4F859194919093E002B2
:100E60008093DF0260E082E00E94D9008091EC0272
:100E700081FD04C061E082E00E948D0082E08093E9
:100E8000DA02E0EBF0E0E491E093DB02ECE9F0E081
:100E9000E491F0E0EE0FFF1FEA57FF4F8591949128
:100EA0009093DD028093DC020895789484B582608B
:100EB00084BD84B5816084BD85B5826085BD85B5FE
:100EC000816085BD80916E00816080936E0010927C
:100ED00081008091810082608093810080918100F7
:100EE0008160809381008091800081608093800088
:100EF0008091B10084608093B1008091B0008160E6
:100F00008093B00080917A00846080937A00809111
:100F10007A00826080937A0080917A008160809369
:100F20007A0080917A00806880937A001092C100E4
:100F3000E0914102F091420282E08083E0913D0223
:100F4000F0913E021082E0913F02F09140028FEC5E
:100F5000808310924902E0914502F091460286E0BA
:100F60008083E0914302F09144028081806180831C
:100F7000E0914302F0914402808188608083E09197
:100F80004302F0914402808180688083E0914302B3
:100F9000F091440280818F7D80831092E90210924B
:100FA000E8021092E7021092E6021092E502109217
:100FB000E4028DE991E09093EB028093EA02909134
:100FC000DA02963108F047C02DEB30E03093E502AD
:100FD0002093E4022BE931E03093E7022093E6020C
:100FE0002CE231E03093E9022093E802209168007E
:100FF00084E0983048F031E09E3008F430E081E041
:1010000001C0880F3A95EAF7822B809368002DE69D
:1010100030E0983050F02BE630E09E3030F02CE697
:1010200030E0963110F030E020E03093E20220937F
:10103000E102292F30E0983008F08BC081E001C038
:10104000880F9A95EAF78093E3028091EA029091E3
:10105000EB020197F1F78091E8029091E902892B68
:1010600049F1E0912402F091250282E0EE3CF8077C
:1010700009F1309739F0A389B4899C9185898095CD
:1010800089238C938091EC028E7F8093EC021092E6
:101090002302109222028EEC92E09093250280931C
:1010A0002402E091E102F091E20280819091E3025A
:1010B000892B808361E088E00E94D90061E087E0AD
:1010C0000E94D90064EF71E080E090E00E942F015F
:1010D000C0E0D0E088E091E00E94BE039093270238
:1010E0008093260287E391E00E946D0360912602BF
:1010F0007091270290E080E04AE00E947A0368EE57
:1011000073E080E090E00E942F0180E091E00E9477
:10111000BE03909327028093260280E591E00E940F
:101120006D03609126027091270290E080E04AE012
:101130000E947A0368EE73E080E090E00E942F0145
:10114000209741F20E94CB01882321F20E940000E7
:10115000C1CF9E3040F42850310981E001C0880F92
:101160002A95EAF770CF2E503109F7CF86E291E049
:101170009093CF028093CE02809124029091250219
:101180008E5C924071F4E091E102F091E202908174
:101190008091E3028095892380831092250210922A
:1011A00024020895A1E21A2EAA1BBB1BFD010DC04B
:1011B000AA1FBB1FEE1FFF1FA217B307E407F50707
:1011C00020F0A21BB30BE40BF50B661F771F881FE3
:1011D000991F1A9469F760957095809590959B0179
:1011E000AC01BD01CF010895EE0FFF1F0590F491F2
:1011F000E02D099410E0C2E6D0E004C0FE010E9498
:0E120000F4082196C336D107C9F7F894FFCF42
:10120E00FE03020000016D900103001E0001E40CBC
:10121E0000000000010261018E014E02BF019D011E
:10122E00B10100000000D70261016A039502330389
:10123E004903BF020D0A004944206368616E676569
:10124E0020726573706F6E7365206973203A20008B
:10125E004E65772053656E736F7220494420697313
:04126E00203A200002
:00000001FF
